{
  "contractName": "KryptoBird",
  "abi": [
    {
      "inputs": [],
      "stateMutability": "nonpayable",
      "type": "constructor"
    },
    {
      "anonymous": false,
      "inputs": [
        {
          "indexed": true,
          "internalType": "address",
          "name": "owner",
          "type": "address"
        },
        {
          "indexed": true,
          "internalType": "address",
          "name": "approved",
          "type": "address"
        },
        {
          "indexed": true,
          "internalType": "uint256",
          "name": "tokenid",
          "type": "uint256"
        }
      ],
      "name": "Approved",
      "type": "event"
    },
    {
      "anonymous": false,
      "inputs": [
        {
          "indexed": true,
          "internalType": "address",
          "name": "from",
          "type": "address"
        },
        {
          "indexed": true,
          "internalType": "address",
          "name": "to",
          "type": "address"
        },
        {
          "indexed": true,
          "internalType": "uint256",
          "name": "tokenId",
          "type": "uint256"
        }
      ],
      "name": "Transfer",
      "type": "event"
    },
    {
      "inputs": [
        {
          "internalType": "address",
          "name": "_to",
          "type": "address"
        },
        {
          "internalType": "uint256",
          "name": "tokenId",
          "type": "uint256"
        }
      ],
      "name": "approve",
      "outputs": [],
      "stateMutability": "nonpayable",
      "type": "function"
    },
    {
      "inputs": [
        {
          "internalType": "address",
          "name": "_owner",
          "type": "address"
        }
      ],
      "name": "balanceOf",
      "outputs": [
        {
          "internalType": "uint256",
          "name": "",
          "type": "uint256"
        }
      ],
      "stateMutability": "view",
      "type": "function",
      "constant": true
    },
    {
      "inputs": [
        {
          "internalType": "uint256",
          "name": "",
          "type": "uint256"
        }
      ],
      "name": "kryptoBirdz",
      "outputs": [
        {
          "internalType": "string",
          "name": "",
          "type": "string"
        }
      ],
      "stateMutability": "view",
      "type": "function",
      "constant": true
    },
    {
      "inputs": [],
      "name": "name",
      "outputs": [
        {
          "internalType": "string",
          "name": "",
          "type": "string"
        }
      ],
      "stateMutability": "view",
      "type": "function",
      "constant": true
    },
    {
      "inputs": [
        {
          "internalType": "uint256",
          "name": "_tokenId",
          "type": "uint256"
        }
      ],
      "name": "ownerOf",
      "outputs": [
        {
          "internalType": "address",
          "name": "",
          "type": "address"
        }
      ],
      "stateMutability": "view",
      "type": "function",
      "constant": true
    },
    {
      "inputs": [
        {
          "internalType": "bytes4",
          "name": "interfaceID",
          "type": "bytes4"
        }
      ],
      "name": "supportsInterface",
      "outputs": [
        {
          "internalType": "bool",
          "name": "",
          "type": "bool"
        }
      ],
      "stateMutability": "view",
      "type": "function",
      "constant": true
    },
    {
      "inputs": [],
      "name": "symbol",
      "outputs": [
        {
          "internalType": "string",
          "name": "",
          "type": "string"
        }
      ],
      "stateMutability": "view",
      "type": "function",
      "constant": true
    },
    {
      "inputs": [
        {
          "internalType": "uint256",
          "name": "_index",
          "type": "uint256"
        }
      ],
      "name": "tokenByIndex",
      "outputs": [
        {
          "internalType": "uint256",
          "name": "",
          "type": "uint256"
        }
      ],
      "stateMutability": "view",
      "type": "function",
      "constant": true
    },
    {
      "inputs": [
        {
          "internalType": "address",
          "name": "_owner",
          "type": "address"
        },
        {
          "internalType": "uint256",
          "name": "_index",
          "type": "uint256"
        }
      ],
      "name": "tokenOfOwnerByIndex",
      "outputs": [
        {
          "internalType": "uint256",
          "name": "",
          "type": "uint256"
        }
      ],
      "stateMutability": "view",
      "type": "function",
      "constant": true
    },
    {
      "inputs": [],
      "name": "totalSupply",
      "outputs": [
        {
          "internalType": "uint256",
          "name": "",
          "type": "uint256"
        }
      ],
      "stateMutability": "view",
      "type": "function",
      "constant": true
    },
    {
      "inputs": [
        {
          "internalType": "address",
          "name": "_from",
          "type": "address"
        },
        {
          "internalType": "address",
          "name": "_to",
          "type": "address"
        },
        {
          "internalType": "uint256",
          "name": "_tokenId",
          "type": "uint256"
        }
      ],
      "name": "transferFrom",
      "outputs": [],
      "stateMutability": "nonpayable",
      "type": "function"
    },
    {
      "inputs": [
        {
          "internalType": "string",
          "name": "_kryptoBird",
          "type": "string"
        }
      ],
      "name": "mint",
      "outputs": [],
      "stateMutability": "nonpayable",
      "type": "function"
    }
  ],
  "bytecode": "0x60806040523480156200001157600080fd5b506040518060400160405280600a81526020017f4b727970746f62697264000000000000000000000000000000000000000000008152506040518060400160405280600681526020017f4b424952445a00000000000000000000000000000000000000000000000000008152508181620000b17f01ffc9a7a5cef8baa21ed3c5c0d7e23accb804b619e9333b597f47a0d84076e26200022a60201b60201c565b8160019080519060200190620000c992919062000301565b508060029080519060200190620000e292919062000301565b50620001367f13b182f4c0e5b2efbac0efe6cf6d756c8b89f4b79c5707a043ed9ea740574ee97f7feaf19471f34a12a7eaf32d5f3090aa2260ea8624dc8a138e74e0bf0f623076186200022a60201b60201c565b5050620001ad7f22c82707ba960a14c7592ffb6b8cfaa073fed0048a84cc7fa41f6b5bd8e7f2e47f3a6eb71757dfc6e784c1459d26270140c2c147d95ca985c80026fc5301c3eca17f8a7e378434598edc36d108689a030cbc9d7d465de4f74c71bae1028eed6a881b18186200022a60201b60201c565b620002227f8230223f691b981717299fae9549350a0d894555723531f02108b1f522c1a7977f6da5e1284143cdd2d15038a59bde3be031250f00291d64494c12d967b3a4e0c37fc53637662700e6c65104059db8bba34439e0c32483ab7c34e3ccae52c739549518186200022a60201b60201c565b505062000498565b63ffffffff60e01b817bffffffffffffffffffffffffffffffffffffffffffffffffffffffff19160362000295576040517f08c379a00000000000000000000000000000000000000000000000000000000081526004016200028c9062000412565b60405180910390fd5b6001600080837bffffffffffffffffffffffffffffffffffffffffffffffffffffffff19167bffffffffffffffffffffffffffffffffffffffffffffffffffffffff1916815260200190815260200160002060006101000a81548160ff02191690831515021790555050565b8280546200030f9062000463565b90600052602060002090601f0160209004810192826200033357600085556200037f565b82601f106200034e57805160ff19168380011785556200037f565b828001600101855582156200037f579182015b828111156200037e57825182559160200191906001019062000361565b5b5090506200038e919062000392565b5090565b5b80821115620003ad57600081600090555060010162000393565b5090565b600082825260208201905092915050565b7f4552433136353a20496e76616c696420696e7465726661636500000000000000600082015250565b6000620003fa601983620003b1565b91506200040782620003c2565b602082019050919050565b600060208201905081810360008301526200042d81620003eb565b9050919050565b7f4e487b7100000000000000000000000000000000000000000000000000000000600052602260045260246000fd5b600060028204905060018216806200047c57607f821691505b60208210810362000492576200049162000434565b5b50919050565b611e3880620004a86000396000f3fe608060405234801561001057600080fd5b50600436106100b45760003560e01c80634f6ccce7116100715780634f6ccce71461018d5780636352211e146101bd57806370a08231146101ed57806393ab6e561461021d57806395d89b411461024d578063d85d3d271461026b576100b4565b806301ffc9a7146100b957806306fdde03146100e9578063095ea7b31461010757806318160ddd1461012357806323b872dd146101415780632f745c591461015d575b600080fd5b6100d360048036038101906100ce919061124e565b610287565b6040516100e09190611296565b60405180910390f35b6100f16102ee565b6040516100fe919061134a565b60405180910390f35b610121600480360381019061011c9190611400565b610380565b005b61012b61051b565b604051610138919061144f565b60405180910390f35b61015b6004803603810190610156919061146a565b610528565b005b61017760048036038101906101729190611400565b61054b565b604051610184919061144f565b60405180910390f35b6101a760048036038101906101a291906114bd565b6105fb565b6040516101b4919061144f565b60405180910390f35b6101d760048036038101906101d291906114bd565b61066c565b6040516101e491906114f9565b60405180910390f35b61020760048036038101906102029190611514565b61071d565b604051610214919061144f565b60405180910390f35b610237600480360381019061023291906114bd565b6107db565b604051610244919061134a565b60405180910390f35b610255610887565b604051610262919061134a565b60405180910390f35b61028560048036038101906102809190611676565b610919565b005b6000806000837bffffffffffffffffffffffffffffffffffffffffffffffffffffffff19167bffffffffffffffffffffffffffffffffffffffffffffffffffffffff1916815260200190815260200160002060009054906101000a900460ff169050919050565b6060600180546102fd906116ee565b80601f0160208091040260200160405190810160405280929190818152602001828054610329906116ee565b80156103765780601f1061034b57610100808354040283529160200191610376565b820191906000526020600020905b81548152906001019060200180831161035957829003601f168201915b5050505050905090565b600061038b8261066c565b90508073ffffffffffffffffffffffffffffffffffffffff168373ffffffffffffffffffffffffffffffffffffffff16036103fb576040517f08c379a00000000000000000000000000000000000000000000000000000000081526004016103f29061176b565b60405180910390fd5b8073ffffffffffffffffffffffffffffffffffffffff163373ffffffffffffffffffffffffffffffffffffffff1614610469576040517f08c379a0000000000000000000000000000000000000000000000000000000008152600401610460906117d7565b60405180910390fd5b826005600084815260200190815260200160002060006101000a81548173ffffffffffffffffffffffffffffffffffffffff021916908373ffffffffffffffffffffffffffffffffffffffff160217905550818373ffffffffffffffffffffffffffffffffffffffff168273ffffffffffffffffffffffffffffffffffffffff167f80da462ebfbe41cfc9bc015e7a9a3c7a2a73dbccede72d8ceb583606c27f8f9060405160405180910390a4505050565b6000600680549050905090565b6105323382610a1c565b61053b57600080fd5b610546838383610b1a565b505050565b60006105568361071d565b8210610597576040517f08c379a000000000000000000000000000000000000000000000000000000000815260040161058e90611843565b60405180910390fd5b600860008473ffffffffffffffffffffffffffffffffffffffff1673ffffffffffffffffffffffffffffffffffffffff16815260200190815260200160002082815481106105e8576105e7611863565b5b9060005260206000200154905092915050565b600061060561051b565b8210610646576040517f08c379a000000000000000000000000000000000000000000000000000000000815260040161063d906118de565b60405180910390fd5b6006828154811061065a57610659611863565b5b90600052602060002001549050919050565b6000806003600084815260200190815260200160002060009054906101000a900473ffffffffffffffffffffffffffffffffffffffff169050600073ffffffffffffffffffffffffffffffffffffffff168173ffffffffffffffffffffffffffffffffffffffff1603610714576040517f08c379a000000000000000000000000000000000000000000000000000000000815260040161070b9061194a565b60405180910390fd5b80915050919050565b60008073ffffffffffffffffffffffffffffffffffffffff168273ffffffffffffffffffffffffffffffffffffffff160361078d576040517f08c379a00000000000000000000000000000000000000000000000000000000081526004016107849061194a565b60405180910390fd5b6107d4600460008473ffffffffffffffffffffffffffffffffffffffff1673ffffffffffffffffffffffffffffffffffffffff168152602001908152602001600020610d3f565b9050919050565b600a81815481106107eb57600080fd5b906000526020600020016000915090508054610806906116ee565b80601f0160208091040260200160405190810160405280929190818152602001828054610832906116ee565b801561087f5780601f106108545761010080835404028352916020019161087f565b820191906000526020600020905b81548152906001019060200180831161086257829003601f168201915b505050505081565b606060028054610896906116ee565b80601f01602080910402602001604051908101604052809291908181526020018280546108c2906116ee565b801561090f5780601f106108e45761010080835404028352916020019161090f565b820191906000526020600020905b8154815290600101906020018083116108f257829003601f168201915b5050505050905090565b600b8160405161092991906119a6565b908152602001604051809103902060009054906101000a900460ff1615610985576040517f08c379a000000000000000000000000000000000000000000000000000000000815260040161097c90611a2f565b60405180910390fd5b600a819080600181540180825580915050600190039060005260206000200160009091909190915090805190602001906109c092919061113f565b5060006001600a805490506109d59190611a7e565b90506109e13382610d4d565b6001600b836040516109f391906119a6565b908152602001604051809103902060006101000a81548160ff0219169083151502179055505050565b6000610a2782610d6e565b610a66576040517f08c379a0000000000000000000000000000000000000000000000000000000008152600401610a5d90611afe565b60405180910390fd5b6000610a718361066c565b905060006005600085815260200190815260200160002060009054906101000a900473ffffffffffffffffffffffffffffffffffffffff1690508173ffffffffffffffffffffffffffffffffffffffff168573ffffffffffffffffffffffffffffffffffffffff161480610b1057508073ffffffffffffffffffffffffffffffffffffffff168573ffffffffffffffffffffffffffffffffffffffff16145b9250505092915050565b600073ffffffffffffffffffffffffffffffffffffffff168273ffffffffffffffffffffffffffffffffffffffff1603610b89576040517f08c379a0000000000000000000000000000000000000000000000000000000008152600401610b8090611b90565b60405180910390fd5b8273ffffffffffffffffffffffffffffffffffffffff16610ba98261066c565b73ffffffffffffffffffffffffffffffffffffffff1614610bff576040517f08c379a0000000000000000000000000000000000000000000000000000000008152600401610bf690611c22565b60405180910390fd5b610c46600460008573ffffffffffffffffffffffffffffffffffffffff1673ffffffffffffffffffffffffffffffffffffffff168152602001908152602001600020610de0565b610c8d600460008473ffffffffffffffffffffffffffffffffffffffff1673ffffffffffffffffffffffffffffffffffffffff168152602001908152602001600020610e03565b816003600083815260200190815260200160002060006101000a81548173ffffffffffffffffffffffffffffffffffffffff021916908373ffffffffffffffffffffffffffffffffffffffff160217905550808273ffffffffffffffffffffffffffffffffffffffff168473ffffffffffffffffffffffffffffffffffffffff167fddf252ad1be2c89b69c2b068fc378daa952ba7f163c4a11628f55a4df523b3ef60405160405180910390a4505050565b600081600001549050919050565b610d578282610e22565b610d6081610fd3565b610d6a828261101c565b5050565b6000806003600084815260200190815260200160002060009054906101000a900473ffffffffffffffffffffffffffffffffffffffff169050600073ffffffffffffffffffffffffffffffffffffffff168173ffffffffffffffffffffffffffffffffffffffff161415915050919050565b610df8600182600001546110e090919063ffffffff16565b816000018190555050565b6001816000016000828254610e189190611c42565b9250508190555050565b600073ffffffffffffffffffffffffffffffffffffffff168273ffffffffffffffffffffffffffffffffffffffff1603610e91576040517f08c379a0000000000000000000000000000000000000000000000000000000008152600401610e8890611d0a565b60405180910390fd5b610e9a81610d6e565b15610eda576040517f08c379a0000000000000000000000000000000000000000000000000000000008152600401610ed190611d76565b60405180910390fd5b816003600083815260200190815260200160002060006101000a81548173ffffffffffffffffffffffffffffffffffffffff021916908373ffffffffffffffffffffffffffffffffffffffff160217905550610f73600460008473ffffffffffffffffffffffffffffffffffffffff1673ffffffffffffffffffffffffffffffffffffffff168152602001908152602001600020610e03565b808273ffffffffffffffffffffffffffffffffffffffff16600073ffffffffffffffffffffffffffffffffffffffff167fddf252ad1be2c89b69c2b068fc378daa952ba7f163c4a11628f55a4df523b3ef60405160405180910390a45050565b6006805490506007600083815260200190815260200160002081905550600681908060018154018082558091505060019003906000526020600020016000909190919091505550565b600860008373ffffffffffffffffffffffffffffffffffffffff1673ffffffffffffffffffffffffffffffffffffffff168152602001908152602001600020805490506009600083815260200190815260200160002081905550600860008373ffffffffffffffffffffffffffffffffffffffff1673ffffffffffffffffffffffffffffffffffffffff1681526020019081526020016000208190806001815401808255809150506001900390600052602060002001600090919091909150555050565b600082821115611125576040517f08c379a000000000000000000000000000000000000000000000000000000000815260040161111c90611de2565b60405180910390fd5b600082846111339190611a7e565b90508091505092915050565b82805461114b906116ee565b90600052602060002090601f01602090048101928261116d57600085556111b4565b82601f1061118657805160ff19168380011785556111b4565b828001600101855582156111b4579182015b828111156111b3578251825591602001919060010190611198565b5b5090506111c191906111c5565b5090565b5b808211156111de5760008160009055506001016111c6565b5090565b6000604051905090565b600080fd5b600080fd5b60007fffffffff0000000000000000000000000000000000000000000000000000000082169050919050565b61122b816111f6565b811461123657600080fd5b50565b60008135905061124881611222565b92915050565b600060208284031215611264576112636111ec565b5b600061127284828501611239565b91505092915050565b60008115159050919050565b6112908161127b565b82525050565b60006020820190506112ab6000830184611287565b92915050565b600081519050919050565b600082825260208201905092915050565b60005b838110156112eb5780820151818401526020810190506112d0565b838111156112fa576000848401525b50505050565b6000601f19601f8301169050919050565b600061131c826112b1565b61132681856112bc565b93506113368185602086016112cd565b61133f81611300565b840191505092915050565b600060208201905081810360008301526113648184611311565b905092915050565b600073ffffffffffffffffffffffffffffffffffffffff82169050919050565b60006113978261136c565b9050919050565b6113a78161138c565b81146113b257600080fd5b50565b6000813590506113c48161139e565b92915050565b6000819050919050565b6113dd816113ca565b81146113e857600080fd5b50565b6000813590506113fa816113d4565b92915050565b60008060408385031215611417576114166111ec565b5b6000611425858286016113b5565b9250506020611436858286016113eb565b9150509250929050565b611449816113ca565b82525050565b60006020820190506114646000830184611440565b92915050565b600080600060608486031215611483576114826111ec565b5b6000611491868287016113b5565b93505060206114a2868287016113b5565b92505060406114b3868287016113eb565b9150509250925092565b6000602082840312156114d3576114d26111ec565b5b60006114e1848285016113eb565b91505092915050565b6114f38161138c565b82525050565b600060208201905061150e60008301846114ea565b92915050565b60006020828403121561152a576115296111ec565b5b6000611538848285016113b5565b91505092915050565b600080fd5b600080fd5b7f4e487b7100000000000000000000000000000000000000000000000000000000600052604160045260246000fd5b61158382611300565b810181811067ffffffffffffffff821117156115a2576115a161154b565b5b80604052505050565b60006115b56111e2565b90506115c1828261157a565b919050565b600067ffffffffffffffff8211156115e1576115e061154b565b5b6115ea82611300565b9050602081019050919050565b82818337600083830152505050565b6000611619611614846115c6565b6115ab565b90508281526020810184848401111561163557611634611546565b5b6116408482856115f7565b509392505050565b600082601f83011261165d5761165c611541565b5b813561166d848260208601611606565b91505092915050565b60006020828403121561168c5761168b6111ec565b5b600082013567ffffffffffffffff8111156116aa576116a96111f1565b5b6116b684828501611648565b91505092915050565b7f4e487b7100000000000000000000000000000000000000000000000000000000600052602260045260246000fd5b6000600282049050600182168061170657607f821691505b602082108103611719576117186116bf565b5b50919050565b7f4572726f722d417070726f76616c20746f20746865206f776e65720000000000600082015250565b6000611755601b836112bc565b91506117608261171f565b602082019050919050565b6000602082019050818103600083015261178481611748565b9050919050565b7f43757272656e742063616c6c6572206973206e6f7420746865206f776e657200600082015250565b60006117c1601f836112bc565b91506117cc8261178b565b602082019050919050565b600060208201905081810360008301526117f0816117b4565b9050919050565b7f6f776e657220696e646578206973206f7574206f6620626f756e647321000000600082015250565b600061182d601d836112bc565b9150611838826117f7565b602082019050919050565b6000602082019050818103600083015261185c81611820565b9050919050565b7f4e487b7100000000000000000000000000000000000000000000000000000000600052603260045260246000fd5b7f676c6f62616c20696e646578206973206f7574206f6620626f756e6473210000600082015250565b60006118c8601e836112bc565b91506118d382611892565b602082019050919050565b600060208201905081810360008301526118f7816118bb565b9050919050565b7f6f776e6572207175657279206e6f6e2d6578697374656e7420746f6b656e0000600082015250565b6000611934601e836112bc565b915061193f826118fe565b602082019050919050565b6000602082019050818103600083015261196381611927565b9050919050565b600081905092915050565b6000611980826112b1565b61198a818561196a565b935061199a8185602086016112cd565b80840191505092915050565b60006119b28284611975565b915081905092915050565b7f4572726f72202d206b727970746f4269726420616c726561647920657869737460008201527f7300000000000000000000000000000000000000000000000000000000000000602082015250565b6000611a196021836112bc565b9150611a24826119bd565b604082019050919050565b60006020820190508181036000830152611a4881611a0c565b9050919050565b7f4e487b7100000000000000000000000000000000000000000000000000000000600052601160045260246000fd5b6000611a89826113ca565b9150611a94836113ca565b925082821015611aa757611aa6611a4f565b5b828203905092915050565b7f746f6b656e20646f65736e6f7420657869737473000000000000000000000000600082015250565b6000611ae86014836112bc565b9150611af382611ab2565b602082019050919050565b60006020820190508181036000830152611b1781611adb565b9050919050565b7f4572726f722d20457263373231205472616e7366657220746f20746865207a6560008201527f726f206164647265737300000000000000000000000000000000000000000000602082015250565b6000611b7a602a836112bc565b9150611b8582611b1e565b604082019050919050565b60006020820190508181036000830152611ba981611b6d565b9050919050565b7f547279696e6720746f207472616e73666572206120746f6b656e20746865206160008201527f64647265737320646f65736e6f74206f776e0000000000000000000000000000602082015250565b6000611c0c6032836112bc565b9150611c1782611bb0565b604082019050919050565b60006020820190508181036000830152611c3b81611bff565b9050919050565b6000611c4d826113ca565b9150611c58836113ca565b9250827fffffffffffffffffffffffffffffffffffffffffffffffffffffffffffffffff03821115611c8d57611c8c611a4f565b5b828201905092915050565b7f4552433732313a206d696e74696e6720746f20746865207a65726f206164647260008201527f6573730000000000000000000000000000000000000000000000000000000000602082015250565b6000611cf46023836112bc565b9150611cff82611c98565b604082019050919050565b60006020820190508181036000830152611d2381611ce7565b9050919050565b7f45524337323120746f6b656e20616c7265616479206d696e7465640000000000600082015250565b6000611d60601b836112bc565b9150611d6b82611d2a565b602082019050919050565b60006020820190508181036000830152611d8f81611d53565b9050919050565b7f536166654d6174683a207375627472616374696f6e206f766572666c6f770000600082015250565b6000611dcc601e836112bc565b9150611dd782611d96565b602082019050919050565b60006020820190508181036000830152611dfb81611dbf565b905091905056fea2646970667358221220f507acd367db7c6b81bca372ad4276e2ad0cb85c6420a01e92d52c662146150a64736f6c634300080e0033",
  "immutableReferences": {},
  "source": "// SPDX-License-Identifier: MIT\npragma solidity  ^0.8.0;\nimport \"./ERC721Connector.sol\";\ncontract KryptoBird is ERC721Connector {\n\n\n// array to store our nfts\n  string [] public kryptoBirdz;\n\nmapping(string => bool) _kryptoBirdzExists;\n\n\nfunction mint(string memory _kryptoBird) public{\n\n//  this is depreciated-uint _id = KryptoBirdz.push(_kryptoBird)\n// .push no longer returns the length but a ref to the added element\n\nrequire(!_kryptoBirdzExists[_kryptoBird],\"Error - kryptoBird already exists\");\n\nkryptoBirdz.push(_kryptoBird);\n\nuint _id = kryptoBirdz.length - 1;\n\n_mint(msg.sender,_id);\n_kryptoBirdzExists[_kryptoBird] = true;\n}\n    constructor()ERC721Connector(\"Kryptobird\",\"KBIRDZ\"){\n    \n    }\n}",
  "sourcePath": "/Users/sachin/Desktop/project/nft-marketplace/src/contracts/KryptoBirdz.sol",
  "compiler": {
    "name": "solc",
    "version": "0.8.14+commit.80d49f37.Emscripten.clang"
  },
  "schemaVersion": "3.4.8",
  "updatedAt": "2022-12-30T13:56:19.480Z",
  "networkType": "ethereum",
  "devdoc": {
    "kind": "dev",
    "methods": {
      "balanceOf(address)": {
        "details": "NFTs assigned to the zero address are considered invalid, and this  function throws for queries about the zero address.",
        "params": {
          "_owner": "An address for whom to query the balance"
        },
        "returns": {
          "_0": "The number of NFTs owned by `_owner`, possibly zero"
        }
      },
      "ownerOf(uint256)": {
        "details": "NFTs assigned to zero address are considered invalid, and queries  about them do throw.",
        "params": {
          "_tokenId": "The identifier for an NFT"
        },
        "returns": {
          "_0": "The address of the owner of the NFT"
        }
      },
      "supportsInterface(bytes4)": {
        "details": "Interface identification is specified in ERC-165. This function  uses less than 30,000 gas.",
        "params": {
          "interfaceID": "The interface identifier, as specified in ERC-165"
        },
        "returns": {
          "_0": "`true` if the contract implements `interfaceID` and  `interfaceID` is not 0xffffffff, `false` otherwise"
        }
      }
    },
    "version": 1
  },
  "userdoc": {
    "kind": "user",
    "methods": {
      "balanceOf(address)": {
        "notice": "Count all NFTs assigned to an owner"
      },
      "ownerOf(uint256)": {
        "notice": "Find the owner of an NFT"
      },
      "supportsInterface(bytes4)": {
        "notice": "Query if a contract implements an interface"
      }
    },
    "version": 1
  }
}